{
  "transactions": [
    {
      "hash": "0x7c1022084fe2e9a8f58c2299047751f1712655b20cbf2465d3476c1317650b05",
      "transactionType": "CREATE",
      "contractName": "ParedesNFT",
      "contractAddress": "0x8a82f4b2375225b0544d371870f6962ccb65ae07",
      "function": null,
      "arguments": [
        "0x7aC722a69CDb106127f1f2cC86761B28176E5379"
      ],
      "transaction": {
        "from": "0x7ac722a69cdb106127f1f2cc86761b28176e5379",
        "gas": "0x1b71ad",
        "value": "0x0",
        "input": "0x60a06040526000608090815260039061001890826101a0565b5034801561002557600080fd5b506040516119f73803806119f78339810160408190526100449161025f565b604080516020810190915260008152819061005e8161009d565b506001600160a01b03811661008d57604051631e4fbdf760e01b81526000600482015260240160405180910390fd5b610096816100ad565b505061028f565b60026100a982826101a0565b5050565b600580546001600160a01b038381166001600160a01b0319831681179093556040519116919082907f8be0079c531659141344cd1fd0a4f28419497f9722a3daafe3b4186f6b6457e090600090a35050565b634e487b7160e01b600052604160045260246000fd5b600181811c9082168061012957607f821691505b60208210810361014957634e487b7160e01b600052602260045260246000fd5b50919050565b601f82111561019b576000816000526020600020601f850160051c810160208610156101785750805b601f850160051c820191505b8181101561019757828155600101610184565b5050505b505050565b81516001600160401b038111156101b9576101b96100ff565b6101cd816101c78454610115565b8461014f565b602080601f83116001811461020257600084156101ea5750858301515b600019600386901b1c1916600185901b178555610197565b600085815260208120601f198616915b8281101561023157888601518255948401946001909101908401610212565b508582101561024f5787850151600019600388901b60f8161c191681555b5050505050600190811b01905550565b60006020828403121561027157600080fd5b81516001600160a01b038116811461028857600080fd5b9392505050565b6117598061029e6000396000f3fe608060405234801561001057600080fd5b50600436106100e95760003560e01c8063731133e91161008c578063a22cb46511610066578063a22cb465146101e8578063e985e9c5146101fb578063f242432a1461020e578063f2fde38b1461022157600080fd5b8063731133e9146101a7578063862440e2146101ba5780638da5cb5b146101cd57600080fd5b80631f7fdffa116100c85780631f7fdffa146101575780632eb2c2d61461016c5780634e1273f41461017f578063715018a61461019f57600080fd5b8062fdd58e146100ee57806301ffc9a7146101145780630e89341c14610137575b600080fd5b6101016100fc366004610e1e565b610234565b6040519081526020015b60405180910390f35b610127610122366004610e5e565b61025c565b604051901515815260200161010b565b61014a610145366004610e7b565b6102ac565b60405161010b9190610ee4565b61016a610165366004611049565b6102b7565b005b61016a61017a3660046110e2565b6102d1565b61019261018d36600461118c565b61033d565b60405161010b9190611288565b61016a61040a565b61016a6101b536600461129b565b61041e565b61016a6101c83660046112f0565b610432565b6005546040516001600160a01b03909116815260200161010b565b61016a6101f6366004611341565b610448565b61012761020936600461137d565b610453565b61016a61021c3660046113b0565b610481565b61016a61022f366004611415565b6104e0565b6000818152602081815260408083206001600160a01b03861684529091529020545b92915050565b60006001600160e01b03198216636cdb3d1360e11b148061028d57506001600160e01b031982166303a24d0760e21b145b8061025657506301ffc9a760e01b6001600160e01b0319831614610256565b60606102568261051e565b6102bf6105fe565b6102cb8484848461062b565b50505050565b336001600160a01b03861681148015906102f257506102f08682610453565b155b156103285760405163711bec9160e11b81526001600160a01b038083166004830152871660248201526044015b60405180910390fd5b6103358686868686610663565b505050505050565b6060815183511461036e5781518351604051635b05999160e01b81526004810192909252602482015260440161031f565b6000835167ffffffffffffffff81111561038a5761038a610ef7565b6040519080825280602002602001820160405280156103b3578160200160208202803683370190505b50905060005b8451811015610402576020808202860101516103dd90602080840287010151610234565b8282815181106103ef576103ef611430565b60209081029190910101526001016103b9565b509392505050565b6104126105fe565b61041c60006106ca565b565b6104266105fe565b6102cb8484848461071c565b61043a6105fe565b6104448282610779565b5050565b6104443383836107d6565b6001600160a01b03918216600090815260016020908152604080832093909416825291909152205460ff1690565b336001600160a01b03861681148015906104a257506104a08682610453565b155b156104d35760405163711bec9160e11b81526001600160a01b0380831660048301528716602482015260440161031f565b610335868686868661086c565b6104e86105fe565b6001600160a01b03811661051257604051631e4fbdf760e01b81526000600482015260240161031f565b61051b816106ca565b50565b60008181526004602052604081208054606092919061053c90611446565b80601f016020809104026020016040519081016040528092919081815260200182805461056890611446565b80156105b55780601f1061058a576101008083540402835291602001916105b5565b820191906000526020600020905b81548152906001019060200180831161059857829003601f168201915b5050505050905060008151116105d3576105ce836108fa565b6105f7565b6003816040516020016105e7929190611480565b6040516020818303038152906040525b9392505050565b6005546001600160a01b0316331461041c5760405163118cdaa760e01b815233600482015260240161031f565b6001600160a01b03841661065557604051632bfa23e760e11b81526000600482015260240161031f565b6102cb60008585858561098e565b6001600160a01b03841661068d57604051632bfa23e760e11b81526000600482015260240161031f565b6001600160a01b0385166106b657604051626a0d4560e21b81526000600482015260240161031f565b6106c3858585858561098e565b5050505050565b600580546001600160a01b038381166001600160a01b0319831681179093556040519116919082907f8be0079c531659141344cd1fd0a4f28419497f9722a3daafe3b4186f6b6457e090600090a35050565b6001600160a01b03841661074657604051632bfa23e760e11b81526000600482015260240161031f565b6040805160018082526020820186905281830190815260608201859052608082019092529061033560008784848761098e565b60008281526004602052604090206107918282611554565b50817f6bb7ff708619ba0610cba295a58592e0451dee2622938c8755667688daf3529b6107bd846102ac565b6040516107ca9190610ee4565b60405180910390a25050565b6001600160a01b0382166107ff5760405162ced3e160e81b81526000600482015260240161031f565b6001600160a01b03838116600081815260016020908152604080832094871680845294825291829020805460ff191686151590811790915591519182527f17307eab39ab6107e8899845ad3d59bd9653f200f220920489ca2b5937696c31910160405180910390a3505050565b6001600160a01b03841661089657604051632bfa23e760e11b81526000600482015260240161031f565b6001600160a01b0385166108bf57604051626a0d4560e21b81526000600482015260240161031f565b604080516001808252602082018690528183019081526060820185905260808201909252906108f1878784848761098e565b50505050505050565b60606002805461090990611446565b80601f016020809104026020016040519081016040528092919081815260200182805461093590611446565b80156109825780601f1061095757610100808354040283529160200191610982565b820191906000526020600020905b81548152906001019060200180831161096557829003601f168201915b50505050509050919050565b61099a858585856109e1565b6001600160a01b038416156106c357825133906001036109d357602084810151908401516109cc838989858589610bf5565b5050610335565b610335818787878787610d19565b8051825114610a105781518151604051635b05999160e01b81526004810192909252602482015260440161031f565b3360005b8351811015610b16576020818102858101820151908501909101516001600160a01b03881615610ac7576000828152602081815260408083206001600160a01b038c16845290915290205481811015610aa0576040516303dee4c560e01b81526001600160a01b038a16600482015260248101829052604481018390526064810184905260840161031f565b6000838152602081815260408083206001600160a01b038d16845290915290209082900390555b6001600160a01b03871615610b0c576000828152602081815260408083206001600160a01b038b16845290915281208054839290610b06908490611614565b90915550505b5050600101610a14565b508251600103610b975760208301516000906020840151909150856001600160a01b0316876001600160a01b0316846001600160a01b03167fc3d58168c5ae7397731d063d5bbf3d657854427343f4c083240f7aacaa2d0f628585604051610b88929190918252602082015260400190565b60405180910390a450506106c3565b836001600160a01b0316856001600160a01b0316826001600160a01b03167f4a39dc06d4c0dbc64b70af90fd698a233a518aa5d07e595d983b8c0526c8f7fb8686604051610be6929190611635565b60405180910390a45050505050565b6001600160a01b0384163b156103355760405163f23a6e6160e01b81526001600160a01b0385169063f23a6e6190610c399089908990889088908890600401611663565b6020604051808303816000875af1925050508015610c74575060408051601f3d908101601f19168201909252610c71918101906116a8565b60015b610cdd573d808015610ca2576040519150601f19603f3d011682016040523d82523d6000602084013e610ca7565b606091505b508051600003610cd557604051632bfa23e760e11b81526001600160a01b038616600482015260240161031f565b805181602001fd5b6001600160e01b0319811663f23a6e6160e01b146108f157604051632bfa23e760e11b81526001600160a01b038616600482015260240161031f565b6001600160a01b0384163b156103355760405163bc197c8160e01b81526001600160a01b0385169063bc197c8190610d5d90899089908890889088906004016116c5565b6020604051808303816000875af1925050508015610d98575060408051601f3d908101601f19168201909252610d95918101906116a8565b60015b610dc6573d808015610ca2576040519150601f19603f3d011682016040523d82523d6000602084013e610ca7565b6001600160e01b0319811663bc197c8160e01b146108f157604051632bfa23e760e11b81526001600160a01b038616600482015260240161031f565b80356001600160a01b0381168114610e1957600080fd5b919050565b60008060408385031215610e3157600080fd5b610e3a83610e02565b946020939093013593505050565b6001600160e01b03198116811461051b57600080fd5b600060208284031215610e7057600080fd5b81356105f781610e48565b600060208284031215610e8d57600080fd5b5035919050565b60005b83811015610eaf578181015183820152602001610e97565b50506000910152565b60008151808452610ed0816020860160208601610e94565b601f01601f19169290920160200192915050565b6020815260006105f76020830184610eb8565b634e487b7160e01b600052604160045260246000fd5b604051601f8201601f1916810167ffffffffffffffff81118282101715610f3657610f36610ef7565b604052919050565b600067ffffffffffffffff821115610f5857610f58610ef7565b5060051b60200190565b600082601f830112610f7357600080fd5b81356020610f88610f8383610f3e565b610f0d565b8083825260208201915060208460051b870101935086841115610faa57600080fd5b602086015b84811015610fc65780358352918301918301610faf565b509695505050505050565b600067ffffffffffffffff831115610feb57610feb610ef7565b610ffe601f8401601f1916602001610f0d565b905082815283838301111561101257600080fd5b828260208301376000602084830101529392505050565b600082601f83011261103a57600080fd5b6105f783833560208501610fd1565b6000806000806080858703121561105f57600080fd5b61106885610e02565b9350602085013567ffffffffffffffff8082111561108557600080fd5b61109188838901610f62565b945060408701359150808211156110a757600080fd5b6110b388838901610f62565b935060608701359150808211156110c957600080fd5b506110d687828801611029565b91505092959194509250565b600080600080600060a086880312156110fa57600080fd5b61110386610e02565b945061111160208701610e02565b9350604086013567ffffffffffffffff8082111561112e57600080fd5b61113a89838a01610f62565b9450606088013591508082111561115057600080fd5b61115c89838a01610f62565b9350608088013591508082111561117257600080fd5b5061117f88828901611029565b9150509295509295909350565b6000806040838503121561119f57600080fd5b823567ffffffffffffffff808211156111b757600080fd5b818501915085601f8301126111cb57600080fd5b813560206111db610f8383610f3e565b82815260059290921b840181019181810190898411156111fa57600080fd5b948201945b8386101561121f5761121086610e02565b825294820194908201906111ff565b9650508601359250508082111561123557600080fd5b5061124285828601610f62565b9150509250929050565b60008151808452602080850194506020840160005b8381101561127d57815187529582019590820190600101611261565b509495945050505050565b6020815260006105f7602083018461124c565b600080600080608085870312156112b157600080fd5b6112ba85610e02565b93506020850135925060408501359150606085013567ffffffffffffffff8111156112e457600080fd5b6110d687828801611029565b6000806040838503121561130357600080fd5b82359150602083013567ffffffffffffffff81111561132157600080fd5b8301601f8101851361133257600080fd5b61124285823560208401610fd1565b6000806040838503121561135457600080fd5b61135d83610e02565b91506020830135801515811461137257600080fd5b809150509250929050565b6000806040838503121561139057600080fd5b61139983610e02565b91506113a760208401610e02565b90509250929050565b600080600080600060a086880312156113c857600080fd5b6113d186610e02565b94506113df60208701610e02565b93506040860135925060608601359150608086013567ffffffffffffffff81111561140957600080fd5b61117f88828901611029565b60006020828403121561142757600080fd5b6105f782610e02565b634e487b7160e01b600052603260045260246000fd5b600181811c9082168061145a57607f821691505b60208210810361147a57634e487b7160e01b600052602260045260246000fd5b50919050565b600080845461148e81611446565b600182811680156114a657600181146114bb576114ea565b60ff19841687528215158302870194506114ea565b8860005260208060002060005b858110156114e15781548a8201529084019082016114c8565b50505082870194505b5050505083516114fe818360208801610e94565b01949350505050565b601f82111561154f576000816000526020600020601f850160051c810160208610156115305750805b601f850160051c820191505b818110156103355782815560010161153c565b505050565b815167ffffffffffffffff81111561156e5761156e610ef7565b6115828161157c8454611446565b84611507565b602080601f8311600181146115b7576000841561159f5750858301515b600019600386901b1c1916600185901b178555610335565b600085815260208120601f198616915b828110156115e6578886015182559484019460019091019084016115c7565b50858210156116045787850151600019600388901b60f8161c191681555b5050505050600190811b01905550565b8082018082111561025657634e487b7160e01b600052601160045260246000fd5b604081526000611648604083018561124c565b828103602084015261165a818561124c565b95945050505050565b6001600160a01b03868116825285166020820152604081018490526060810183905260a06080820181905260009061169d90830184610eb8565b979650505050505050565b6000602082840312156116ba57600080fd5b81516105f781610e48565b6001600160a01b0386811682528516602082015260a0604082018190526000906116f19083018661124c565b8281036060840152611703818661124c565b905082810360808401526117178185610eb8565b9897505050505050505056fea264697066735822122038b304347b91e4a2c61623ff553e464084ef20ff06078966f69c080f304355c664736f6c634300081900330000000000000000000000007ac722a69cdb106127f1f2cc86761b28176e5379",
        "nonce": "0xa",
        "chainId": "0x89"
      },
      "additionalContracts": [],
      "isFixedGasLimit": false
    },
    {
      "hash": "0x396e5511185deab096760282c221ba0be53b841ebc970d8bdb4fa592c3d0f394",
      "transactionType": "CALL",
      "contractName": "ParedesNFT",
      "contractAddress": "0x8a82f4b2375225b0544d371870f6962ccb65ae07",
      "function": "mint(address,uint256,uint256,bytes)",
      "arguments": [
        "0x7aC722a69CDb106127f1f2cC86761B28176E5379",
        "1",
        "1231444",
        "0x"
      ],
      "transaction": {
        "from": "0x7ac722a69cdb106127f1f2cc86761b28176e5379",
        "to": "0x8a82f4b2375225b0544d371870f6962ccb65ae07",
        "gas": "0x1222f",
        "value": "0x0",
        "input": "0x731133e90000000000000000000000007ac722a69cdb106127f1f2cc86761b28176e53790000000000000000000000000000000000000000000000000000000000000001000000000000000000000000000000000000000000000000000000000012ca5400000000000000000000000000000000000000000000000000000000000000800000000000000000000000000000000000000000000000000000000000000000",
        "nonce": "0xb",
        "chainId": "0x89"
      },
      "additionalContracts": [],
      "isFixedGasLimit": false
    },
    {
      "hash": "0xb9c24c2f9e32f1712cad1e908f3d392235a7cbd85861cb1e7e37b128753aa08e",
      "transactionType": "CALL",
      "contractName": "ParedesNFT",
      "contractAddress": "0x8a82f4b2375225b0544d371870f6962ccb65ae07",
      "function": "setURI(uint256,string)",
      "arguments": [
        "1",
        "\"https://novatrixtech.github.io/paredesnft/static/nft/1.json\""
      ],
      "transaction": {
        "from": "0x7ac722a69cdb106127f1f2cc86761b28176e5379",
        "to": "0x8a82f4b2375225b0544d371870f6962ccb65ae07",
        "gas": "0x21431",
        "value": "0x0",
        "input": "0x862440e200000000000000000000000000000000000000000000000000000000000000010000000000000000000000000000000000000000000000000000000000000040000000000000000000000000000000000000000000000000000000000000003b68747470733a2f2f6e6f766174726978746563682e6769746875622e696f2f706172656465736e66742f7374617469632f6e66742f312e6a736f6e0000000000",
        "nonce": "0xc",
        "chainId": "0x89"
      },
      "additionalContracts": [],
      "isFixedGasLimit": false
    }
  ],
  "receipts": [
    {
      "status": "0x1",
      "cumulativeGasUsed": "0x5c0bf6",
      "logs": [
        {
          "address": "0x8a82f4b2375225b0544d371870f6962ccb65ae07",
          "topics": [
            "0x8be0079c531659141344cd1fd0a4f28419497f9722a3daafe3b4186f6b6457e0",
            "0x0000000000000000000000000000000000000000000000000000000000000000",
            "0x0000000000000000000000007ac722a69cdb106127f1f2cc86761b28176e5379"
          ],
          "data": "0x",
          "blockHash": "0x3d10b050fe833339cefe1c98f4842f280489b8d0a5e95707cbc43b145200f220",
          "blockNumber": "0x3e118d5",
          "transactionHash": "0x7c1022084fe2e9a8f58c2299047751f1712655b20cbf2465d3476c1317650b05",
          "transactionIndex": "0x2a",
          "logIndex": "0xba",
          "removed": false
        },
        {
          "address": "0x0000000000000000000000000000000000001010",
          "topics": [
            "0x4dfe1bbbcf077ddc3e01291eea2d5c70c2b422b415d95645b9adcfd678cb1d63",
            "0x0000000000000000000000000000000000000000000000000000000000001010",
            "0x0000000000000000000000007ac722a69cdb106127f1f2cc86761b28176e5379",
            "0x000000000000000000000000048cfedf907c4c9ddd11ff882380906e78e84bbe"
          ],
          "data": "0x0000000000000000000000000000000000000000000000000097e6779db6820000000000000000000000000000000000000000000000000059967c86f802f9f40000000000000000000000000000000000000000000005f7f1cd276c6f2456d100000000000000000000000000000000000000000000000058fe960f5a4c77f40000000000000000000000000000000000000000000005f7f2650de40cdad8d1",
          "blockHash": "0x3d10b050fe833339cefe1c98f4842f280489b8d0a5e95707cbc43b145200f220",
          "blockNumber": "0x3e118d5",
          "transactionHash": "0x7c1022084fe2e9a8f58c2299047751f1712655b20cbf2465d3476c1317650b05",
          "transactionIndex": "0x2a",
          "logIndex": "0xbb",
          "removed": false
        }
      ],
      "logsBloom": "0x00000000000000001000000000000000000000000000000000800000000000000000000000000000000000000000008000008000000000000000000004000000000000400000000000000000000000800001000000000000000100000000000000000000020000000080000000000800000000000000000080000000000000400000000000100000000000000000000000000000000000000000000000000000200080000000000000000000000000000000000000000000000000000000004000000000000002000001000000000000000200000000000000100000000020000000000000000000000000000000000000000000000000000000000000100000",
      "type": "0x2",
      "transactionHash": "0x7c1022084fe2e9a8f58c2299047751f1712655b20cbf2465d3476c1317650b05",
      "transactionIndex": "0x2a",
      "blockHash": "0x3d10b050fe833339cefe1c98f4842f280489b8d0a5e95707cbc43b145200f220",
      "blockNumber": "0x3e118d5",
      "gasUsed": "0x151e00",
      "effectiveGasPrice": "0x7f3feb4f7",
      "from": "0x7ac722a69cdb106127f1f2cc86761b28176e5379",
      "to": null,
      "contractAddress": "0x8a82f4b2375225b0544d371870f6962ccb65ae07"
    },
    {
      "status": "0x1",
      "cumulativeGasUsed": "0x5cd261",
      "logs": [
        {
          "address": "0x8a82f4b2375225b0544d371870f6962ccb65ae07",
          "topics": [
            "0xc3d58168c5ae7397731d063d5bbf3d657854427343f4c083240f7aacaa2d0f62",
            "0x0000000000000000000000007ac722a69cdb106127f1f2cc86761b28176e5379",
            "0x0000000000000000000000000000000000000000000000000000000000000000",
            "0x0000000000000000000000007ac722a69cdb106127f1f2cc86761b28176e5379"
          ],
          "data": "0x0000000000000000000000000000000000000000000000000000000000000001000000000000000000000000000000000000000000000000000000000012ca54",
          "blockHash": "0x3d10b050fe833339cefe1c98f4842f280489b8d0a5e95707cbc43b145200f220",
          "blockNumber": "0x3e118d5",
          "transactionHash": "0x396e5511185deab096760282c221ba0be53b841ebc970d8bdb4fa592c3d0f394",
          "transactionIndex": "0x2b",
          "logIndex": "0xbc",
          "removed": false
        },
        {
          "address": "0x0000000000000000000000000000000000001010",
          "topics": [
            "0x4dfe1bbbcf077ddc3e01291eea2d5c70c2b422b415d95645b9adcfd678cb1d63",
            "0x0000000000000000000000000000000000000000000000000000000000001010",
            "0x0000000000000000000000007ac722a69cdb106127f1f2cc86761b28176e5379",
            "0x000000000000000000000000048cfedf907c4c9ddd11ff882380906e78e84bbe"
          ],
          "data": "0x00000000000000000000000000000000000000000000000000059342db8924a500000000000000000000000000000000000000000000000058ee8a0a468b07f40000000000000000000000000000000000000000000005f7f2650de40cdad8d100000000000000000000000000000000000000000000000058e8f6c76b01e34f0000000000000000000000000000000000000000000005f7f26aa126e863fd76",
          "blockHash": "0x3d10b050fe833339cefe1c98f4842f280489b8d0a5e95707cbc43b145200f220",
          "blockNumber": "0x3e118d5",
          "transactionHash": "0x396e5511185deab096760282c221ba0be53b841ebc970d8bdb4fa592c3d0f394",
          "transactionIndex": "0x2b",
          "logIndex": "0xbd",
          "removed": false
        }
      ],
      "logsBloom": "0x00000000000000001000000000000000000000000000000000000000000000000000000000000000000000000000008000008000000000000000000004002000000000400000000000000000000000800000000000000000000100000000000000000000020000000080000000000800000000000000000080000000000000000000000000100000000000000000000000000000000000000000000000000000200080000000000000000000000000000000000000000000000000000000004000000000000002000001000000000000000200000008000000100000000020000000000000000000000000000000000000000000000000000000080000100000",
      "type": "0x2",
      "transactionHash": "0x396e5511185deab096760282c221ba0be53b841ebc970d8bdb4fa592c3d0f394",
      "transactionIndex": "0x2b",
      "blockHash": "0x3d10b050fe833339cefe1c98f4842f280489b8d0a5e95707cbc43b145200f220",
      "blockNumber": "0x3e118d5",
      "gasUsed": "0xc66b",
      "effectiveGasPrice": "0x7f3feb4f7",
      "from": "0x7ac722a69cdb106127f1f2cc86761b28176e5379",
      "to": "0x8a82f4b2375225b0544d371870f6962ccb65ae07",
      "contractAddress": null
    },
    {
      "status": "0x1",
      "cumulativeGasUsed": "0x5e53ae",
      "logs": [
        {
          "address": "0x8a82f4b2375225b0544d371870f6962ccb65ae07",
          "topics": [
            "0x6bb7ff708619ba0610cba295a58592e0451dee2622938c8755667688daf3529b",
            "0x0000000000000000000000000000000000000000000000000000000000000001"
          ],
          "data": "0x0000000000000000000000000000000000000000000000000000000000000020000000000000000000000000000000000000000000000000000000000000003b68747470733a2f2f6e6f766174726978746563682e6769746875622e696f2f706172656465736e66742f7374617469632f6e66742f312e6a736f6e0000000000",
          "blockHash": "0x3d10b050fe833339cefe1c98f4842f280489b8d0a5e95707cbc43b145200f220",
          "blockNumber": "0x3e118d5",
          "transactionHash": "0xb9c24c2f9e32f1712cad1e908f3d392235a7cbd85861cb1e7e37b128753aa08e",
          "transactionIndex": "0x2c",
          "logIndex": "0xbe",
          "removed": false
        },
        {
          "address": "0x0000000000000000000000000000000000001010",
          "topics": [
            "0x4dfe1bbbcf077ddc3e01291eea2d5c70c2b422b415d95645b9adcfd678cb1d63",
            "0x0000000000000000000000000000000000000000000000000000000000001010",
            "0x0000000000000000000000007ac722a69cdb106127f1f2cc86761b28176e5379",
            "0x000000000000000000000000048cfedf907c4c9ddd11ff882380906e78e84bbe"
          ],
          "data": "0x000000000000000000000000000000000000000000000000000ad38c2e219e2300000000000000000000000000000000000000000000000058e860004b1e5ab70000000000000000000000000000000000000000000005f7f26aa126e863fd7600000000000000000000000000000000000000000000000058dd8c741cfcbc940000000000000000000000000000000000000000000005f7f27574b316859b99",
          "blockHash": "0x3d10b050fe833339cefe1c98f4842f280489b8d0a5e95707cbc43b145200f220",
          "blockNumber": "0x3e118d5",
          "transactionHash": "0xb9c24c2f9e32f1712cad1e908f3d392235a7cbd85861cb1e7e37b128753aa08e",
          "transactionIndex": "0x2c",
          "logIndex": "0xbf",
          "removed": false
        }
      ],
      "logsBloom": "0x00000000000000001000000000000000000000000000000000000000000000000000000000000000000000000000008000008000000000000000000004040000000000400000010000000020000000800000000000040000000100000000000000000000000000000080000000000000000000000000000080000000000000000000000000100000000000000000001000000000000000000000000000000000200080000000000000000000000000000000000000000000000000000000004000000000000002000001000000000000000200000000000000100000000040000000000000000000000000000000000000000000000000000000000000100000",
      "type": "0x2",
      "transactionHash": "0xb9c24c2f9e32f1712cad1e908f3d392235a7cbd85861cb1e7e37b128753aa08e",
      "transactionIndex": "0x2c",
      "blockHash": "0x3d10b050fe833339cefe1c98f4842f280489b8d0a5e95707cbc43b145200f220",
      "blockNumber": "0x3e118d5",
      "gasUsed": "0x1814d",
      "effectiveGasPrice": "0x7f3feb4f7",
      "from": "0x7ac722a69cdb106127f1f2cc86761b28176e5379",
      "to": "0x8a82f4b2375225b0544d371870f6962ccb65ae07",
      "contractAddress": null
    }
  ],
  "libraries": [],
  "pending": [],
  "returns": {},
  "timestamp": 1733338613,
  "chain": 137,
  "commit": "5262fd6"
}